{
  "address": "0x97bFDd1EAd97c854183138797ac957B604df61aC",
  "abi": [
    {
      "inputs": [
        {
          "internalType": "address",
          "name": "_endpoint",
          "type": "address"
        },
        {
          "internalType": "address",
          "name": "_owner",
          "type": "address"
        }
      ],
      "stateMutability": "nonpayable",
      "type": "constructor"
    },
    {
      "inputs": [],
      "name": "InvalidDelegate",
      "type": "error"
    },
    {
      "inputs": [],
      "name": "InvalidEndpointCall",
      "type": "error"
    },
    {
      "inputs": [
        {
          "internalType": "bytes",
          "name": "options",
          "type": "bytes"
        }
      ],
      "name": "InvalidOptions",
      "type": "error"
    },
    {
      "inputs": [],
      "name": "LzTokenUnavailable",
      "type": "error"
    },
    {
      "inputs": [
        {
          "internalType": "uint32",
          "name": "eid",
          "type": "uint32"
        }
      ],
      "name": "NoPeer",
      "type": "error"
    },
    {
      "inputs": [
        {
          "internalType": "uint256",
          "name": "msgValue",
          "type": "uint256"
        }
      ],
      "name": "NotEnoughNative",
      "type": "error"
    },
    {
      "inputs": [
        {
          "internalType": "address",
          "name": "addr",
          "type": "address"
        }
      ],
      "name": "OnlyEndpoint",
      "type": "error"
    },
    {
      "inputs": [
        {
          "internalType": "uint32",
          "name": "eid",
          "type": "uint32"
        },
        {
          "internalType": "bytes32",
          "name": "sender",
          "type": "bytes32"
        }
      ],
      "name": "OnlyPeer",
      "type": "error"
    },
    {
      "inputs": [
        {
          "internalType": "address",
          "name": "owner",
          "type": "address"
        }
      ],
      "name": "OwnableInvalidOwner",
      "type": "error"
    },
    {
      "inputs": [
        {
          "internalType": "address",
          "name": "account",
          "type": "address"
        }
      ],
      "name": "OwnableUnauthorizedAccount",
      "type": "error"
    },
    {
      "inputs": [
        {
          "internalType": "address",
          "name": "token",
          "type": "address"
        }
      ],
      "name": "SafeERC20FailedOperation",
      "type": "error"
    },
    {
      "anonymous": false,
      "inputs": [
        {
          "components": [
            {
              "internalType": "uint32",
              "name": "eid",
              "type": "uint32"
            },
            {
              "internalType": "uint16",
              "name": "msgType",
              "type": "uint16"
            },
            {
              "internalType": "bytes",
              "name": "options",
              "type": "bytes"
            }
          ],
          "indexed": false,
          "internalType": "struct EnforcedOptionParam[]",
          "name": "_enforcedOptions",
          "type": "tuple[]"
        }
      ],
      "name": "EnforcedOptionSet",
      "type": "event"
    },
    {
      "anonymous": false,
      "inputs": [
        {
          "indexed": true,
          "internalType": "address",
          "name": "previousOwner",
          "type": "address"
        },
        {
          "indexed": true,
          "internalType": "address",
          "name": "newOwner",
          "type": "address"
        }
      ],
      "name": "OwnershipTransferred",
      "type": "event"
    },
    {
      "anonymous": false,
      "inputs": [
        {
          "indexed": false,
          "internalType": "uint32",
          "name": "eid",
          "type": "uint32"
        },
        {
          "indexed": false,
          "internalType": "bytes32",
          "name": "peer",
          "type": "bytes32"
        }
      ],
      "name": "PeerSet",
      "type": "event"
    },
    {
      "inputs": [],
      "name": "SEND",
      "outputs": [
        {
          "internalType": "uint16",
          "name": "",
          "type": "uint16"
        }
      ],
      "stateMutability": "view",
      "type": "function"
    },
    {
      "inputs": [
        {
          "components": [
            {
              "internalType": "uint32",
              "name": "srcEid",
              "type": "uint32"
            },
            {
              "internalType": "bytes32",
              "name": "sender",
              "type": "bytes32"
            },
            {
              "internalType": "uint64",
              "name": "nonce",
              "type": "uint64"
            }
          ],
          "internalType": "struct Origin",
          "name": "origin",
          "type": "tuple"
        }
      ],
      "name": "allowInitializePath",
      "outputs": [
        {
          "internalType": "bool",
          "name": "",
          "type": "bool"
        }
      ],
      "stateMutability": "view",
      "type": "function"
    },
    {
      "inputs": [
        {
          "internalType": "uint32",
          "name": "_eid",
          "type": "uint32"
        },
        {
          "internalType": "uint16",
          "name": "_msgType",
          "type": "uint16"
        },
        {
          "internalType": "bytes",
          "name": "_extraOptions",
          "type": "bytes"
        }
      ],
      "name": "combineOptions",
      "outputs": [
        {
          "internalType": "bytes",
          "name": "",
          "type": "bytes"
        }
      ],
      "stateMutability": "view",
      "type": "function"
    },
    {
      "inputs": [],
      "name": "endpoint",
      "outputs": [
        {
          "internalType": "contract ILayerZeroEndpointV2",
          "name": "",
          "type": "address"
        }
      ],
      "stateMutability": "view",
      "type": "function"
    },
    {
      "inputs": [
        {
          "internalType": "uint32",
          "name": "eid",
          "type": "uint32"
        },
        {
          "internalType": "uint16",
          "name": "msgType",
          "type": "uint16"
        }
      ],
      "name": "enforcedOptions",
      "outputs": [
        {
          "internalType": "bytes",
          "name": "enforcedOption",
          "type": "bytes"
        }
      ],
      "stateMutability": "view",
      "type": "function"
    },
    {
      "inputs": [
        {
          "components": [
            {
              "internalType": "uint32",
              "name": "srcEid",
              "type": "uint32"
            },
            {
              "internalType": "bytes32",
              "name": "sender",
              "type": "bytes32"
            },
            {
              "internalType": "uint64",
              "name": "nonce",
              "type": "uint64"
            }
          ],
          "internalType": "struct Origin",
          "name": "",
          "type": "tuple"
        },
        {
          "internalType": "bytes",
          "name": "",
          "type": "bytes"
        },
        {
          "internalType": "address",
          "name": "_sender",
          "type": "address"
        }
      ],
      "name": "isComposeMsgSender",
      "outputs": [
        {
          "internalType": "bool",
          "name": "",
          "type": "bool"
        }
      ],
      "stateMutability": "view",
      "type": "function"
    },
    {
      "inputs": [],
      "name": "lastMessage",
      "outputs": [
        {
          "internalType": "string",
          "name": "",
          "type": "string"
        }
      ],
      "stateMutability": "view",
      "type": "function"
    },
    {
      "inputs": [
        {
          "components": [
            {
              "internalType": "uint32",
              "name": "srcEid",
              "type": "uint32"
            },
            {
              "internalType": "bytes32",
              "name": "sender",
              "type": "bytes32"
            },
            {
              "internalType": "uint64",
              "name": "nonce",
              "type": "uint64"
            }
          ],
          "internalType": "struct Origin",
          "name": "_origin",
          "type": "tuple"
        },
        {
          "internalType": "bytes32",
          "name": "_guid",
          "type": "bytes32"
        },
        {
          "internalType": "bytes",
          "name": "_message",
          "type": "bytes"
        },
        {
          "internalType": "address",
          "name": "_executor",
          "type": "address"
        },
        {
          "internalType": "bytes",
          "name": "_extraData",
          "type": "bytes"
        }
      ],
      "name": "lzReceive",
      "outputs": [],
      "stateMutability": "payable",
      "type": "function"
    },
    {
      "inputs": [
        {
          "internalType": "uint32",
          "name": "",
          "type": "uint32"
        },
        {
          "internalType": "bytes32",
          "name": "",
          "type": "bytes32"
        }
      ],
      "name": "nextNonce",
      "outputs": [
        {
          "internalType": "uint64",
          "name": "nonce",
          "type": "uint64"
        }
      ],
      "stateMutability": "view",
      "type": "function"
    },
    {
      "inputs": [],
      "name": "oAppVersion",
      "outputs": [
        {
          "internalType": "uint64",
          "name": "senderVersion",
          "type": "uint64"
        },
        {
          "internalType": "uint64",
          "name": "receiverVersion",
          "type": "uint64"
        }
      ],
      "stateMutability": "pure",
      "type": "function"
    },
    {
      "inputs": [],
      "name": "owner",
      "outputs": [
        {
          "internalType": "address",
          "name": "",
          "type": "address"
        }
      ],
      "stateMutability": "view",
      "type": "function"
    },
    {
      "inputs": [
        {
          "internalType": "uint32",
          "name": "eid",
          "type": "uint32"
        }
      ],
      "name": "peers",
      "outputs": [
        {
          "internalType": "bytes32",
          "name": "peer",
          "type": "bytes32"
        }
      ],
      "stateMutability": "view",
      "type": "function"
    },
    {
      "inputs": [
        {
          "internalType": "uint32",
          "name": "_dstEid",
          "type": "uint32"
        },
        {
          "internalType": "string",
          "name": "_string",
          "type": "string"
        },
        {
          "internalType": "bytes",
          "name": "_options",
          "type": "bytes"
        },
        {
          "internalType": "bool",
          "name": "_payInLzToken",
          "type": "bool"
        }
      ],
      "name": "quoteSendString",
      "outputs": [
        {
          "components": [
            {
              "internalType": "uint256",
              "name": "nativeFee",
              "type": "uint256"
            },
            {
              "internalType": "uint256",
              "name": "lzTokenFee",
              "type": "uint256"
            }
          ],
          "internalType": "struct MessagingFee",
          "name": "fee",
          "type": "tuple"
        }
      ],
      "stateMutability": "view",
      "type": "function"
    },
    {
      "inputs": [],
      "name": "renounceOwnership",
      "outputs": [],
      "stateMutability": "nonpayable",
      "type": "function"
    },
    {
      "inputs": [
        {
          "internalType": "uint32",
          "name": "_dstEid",
          "type": "uint32"
        },
        {
          "internalType": "string",
          "name": "_string",
          "type": "string"
        },
        {
          "internalType": "bytes",
          "name": "_options",
          "type": "bytes"
        }
      ],
      "name": "sendString",
      "outputs": [],
      "stateMutability": "payable",
      "type": "function"
    },
    {
      "inputs": [
        {
          "internalType": "address",
          "name": "_delegate",
          "type": "address"
        }
      ],
      "name": "setDelegate",
      "outputs": [],
      "stateMutability": "nonpayable",
      "type": "function"
    },
    {
      "inputs": [
        {
          "components": [
            {
              "internalType": "uint32",
              "name": "eid",
              "type": "uint32"
            },
            {
              "internalType": "uint16",
              "name": "msgType",
              "type": "uint16"
            },
            {
              "internalType": "bytes",
              "name": "options",
              "type": "bytes"
            }
          ],
          "internalType": "struct EnforcedOptionParam[]",
          "name": "_enforcedOptions",
          "type": "tuple[]"
        }
      ],
      "name": "setEnforcedOptions",
      "outputs": [],
      "stateMutability": "nonpayable",
      "type": "function"
    },
    {
      "inputs": [
        {
          "internalType": "uint32",
          "name": "_eid",
          "type": "uint32"
        },
        {
          "internalType": "bytes32",
          "name": "_peer",
          "type": "bytes32"
        }
      ],
      "name": "setPeer",
      "outputs": [],
      "stateMutability": "nonpayable",
      "type": "function"
    },
    {
      "inputs": [
        {
          "internalType": "address",
          "name": "newOwner",
          "type": "address"
        }
      ],
      "name": "transferOwnership",
      "outputs": [],
      "stateMutability": "nonpayable",
      "type": "function"
    }
  ],
  "transactionHash": "0xb62daff8bd9f1d664aad7fe126e43433ae3b338eba7f226efb4b460ea70e351a",
  "args": [
    "0xbD672D1562Dd32C23B563C989d8140122483631d",
    "0xf1a7b4b4B16fc24650D3dC96d5112b5c1F309092"
  ],
  "numDeployments": 1,
  "solcInputHash": "bb217b4179fa5461c976fe4ff586221c",
  "bytecode": "0x60a0346200017357620018cf906001600160401b03601f38849003908101601f1916830190828211848310176200017857808491604096879485528339810103126200017357602062000052836200018e565b926001600160a01b039182916200006a91016200018e565b169081156200015b57600080546001600160a01b0319811684178255909490839083167f8be0079c531659141344cd1fd0a4f28419497f9722a3daafe3b4186f6b6457e08780a3169081608052813b156200015757839291602484928751968793849263ca5eb5e160e01b845260048401525af180156200014d5762000126575b835161172b9081620001a482396080518181816101fe015281816106a00152818161085b01528181610b5e01528181610f8401526115f30152f35b82116200013957508152388080620000eb565b634e487b7160e01b81526041600452602490fd5b84513d84823e3d90fd5b8380fd5b8451631e4fbdf760e01b815260006004820152602490fd5b600080fd5b634e487b7160e01b600052604160045260246000fd5b51906001600160a01b0382168203620001735756fe6080604052600436101561001257600080fd5b60003560e01c806313137d651461014757806317442b70146101425780631f5e13341461013d57806332970710146101385780633400288b1461013357806336ef96201461012e5780635535d461146101295780635e280f1114610124578063715018a61461011f5780637d25a05e1461011a57806382413eac146101155780638da5cb5b14610110578063b98bd0701461010b578063bb0b6a5314610106578063bc70b35414610101578063ca5eb5e1146100fc578063d3b4866e146100f7578063f2fde38b146100f25763ff7bd03d146100ed57600080fd5b610cea565b610c5e565b610bce565b610b2d565b610ad9565b610a9e565b610993565b61096a565b61090c565b6108e5565b61088a565b610845565b6107d7565b610582565b6104fb565b610404565b6102c5565b6102a3565b6101a0565b606090600319011261015d57600490565b600080fd5b9181601f8401121561015d578235916001600160401b03831161015d576020838186019501011161015d57565b6001600160a01b0381160361015d57565b60e036600319011261015d576101b53661014c565b6001600160401b0360843581811161015d576101d5903690600401610162565b916101e160a43561018f565b60c43590811161015d576101f9903690600401610162565b5050337f00000000000000000000000000000000000000000000000000000000000000006001600160a01b03160361028b5761023c61023784610d30565b610fe7565b9260208101358094036102555761025383836110d1565b005b61025f8491610d30565b60405163309afaf360e21b815263ffffffff9190911660048201526024810191909152604490fd5b0390fd5b6040516391ac5e4f60e01b8152336004820152602490fd5b3461015d57600036600319011261015d57604080516001815260026020820152f35b3461015d57600036600319011261015d57602060405160018152f35b90600182811c92168015610311575b60208310146102fb57565b634e487b7160e01b600052602260045260246000fd5b91607f16916102f0565b634e487b7160e01b600052604160045260246000fd5b604081019081106001600160401b0382111761034c57604052565b61031b565b606081019081106001600160401b0382111761034c57604052565b60a081019081106001600160401b0382111761034c57604052565b90601f801991011681019081106001600160401b0382111761034c57604052565b60005b8381106103bb5750506000910152565b81810151838201526020016103ab565b906020916103e4815180928185528580860191016103a8565b601f01601f1916010190565b9060206104019281815201906103cb565b90565b3461015d576000806003193601126104ea57604051908060035490610428826102e1565b808552916020916001918281169081156104bd5750600114610465575b6104618661045581880382610387565b604051918291826103f0565b0390f35b9350600384527fc2575a0e9e593c00f959f8c92f12db2869c3395a3b0502d05e2516446f71f85b5b8385106104aa575050505081016020016104558261046138610445565b805486860184015293820193810161048d565b90508695506104619693506020925061045594915060ff191682840152151560051b820101929338610445565b80fd5b63ffffffff81160361015d57565b3461015d57604036600319011261015d577f238399d427b947898edb290f5ff0f9109849b1c3ba196a42e35f00c50a54b98b600435610539816104ed565b602435906105456111f7565b63ffffffff811660005260016020528160406000205561057d604051928392836020909392919363ffffffff60408201951681520152565b0390a1005b606036600319011261015d5760043561059a816104ed565b6001600160401b039060243582811161015d576105bb903690600401610162565b60449291923593841161015d5761067f61060e6106086080956105e561069c983690600401610162565b9290916105fa60405197889260208401610d3a565b03601f198101875286610387565b85610df1565b6040519061061b82610331565b348252610639602083019260008452610632611223565b50516115ba565b93825180610703575b5061064c86610fe7565b925115159261066861065c610d62565b63ffffffff9098168852565b602087015260408601526060850152151584840152565b60405180809581946302637a4560e41b83523390600484016112bc565b03917f00000000000000000000000000000000000000000000000000000000000000006001600160a01b03165af180156106fe576106d657005b6102539060803d6080116106f7575b6106ef8183610387565b810190611273565b503d6106e5565b610eba565b61070c906115dc565b38610642565b6024359061ffff8216820361015d57565b359061ffff8216820361015d57565b90604051918260008254610745816102e1565b908184526020946001916001811690816000146107b55750600114610776575b50505061077492500383610387565b565b600090815285812095935091905b81831061079d5750506107749350820101388080610765565b85548884018501529485019487945091830191610784565b9250505061077494925060ff191682840152151560051b820101388080610765565b3461015d57604036600319011261015d5761046161083161082c6004356107fd816104ed565b63ffffffff61080a610712565b9116600052600260205260406000209061ffff16600052602052604060002090565b610732565b6040519182916020835260208301906103cb565b3461015d57600036600319011261015d576040517f00000000000000000000000000000000000000000000000000000000000000006001600160a01b03168152602090f35b3461015d576000806003193601126104ea576108a46111f7565b80546001600160a01b03198116825581906001600160a01b03167f8be0079c531659141344cd1fd0a4f28419497f9722a3daafe3b4186f6b6457e08280a380f35b3461015d57604036600319011261015d576109016004356104ed565b602060405160008152f35b3461015d5760a036600319011261015d576109263661014c565b506064356001600160401b03811161015d57610946903690600401610162565b505060206084356109568161018f565b6040516001600160a01b0390911630148152f35b3461015d57600036600319011261015d576000546040516001600160a01b039091168152602090f35b3461015d5760208060031936011261015d576001600160401b0360043581811161015d573660238201121561015d5780600401359082821161015d576024908260051b936024858301019336851161015d576109ed6111f7565b6040906109ff88604051980188610387565b865260248301928787015b868510610a1a57610253886114a8565b843584811161015d5782016060602319823603011261015d57835191610a3f83610351565b87820135610a4c816104ed565b8352604491610a5c838201610723565b8c85015260648101359087821161015d5701923660438501121561015d57610a8f8c9493859436918c8201359101610d6f565b86820152815201940193610a0a565b3461015d57602036600319011261015d5763ffffffff600435610ac0816104ed565b1660005260016020526020604060002054604051908152f35b3461015d57606036600319011261015d57600435610af6816104ed565b610afe610712565b604435906001600160401b03821161015d5761046192610b25610831933690600401610162565b929091610e8c565b3461015d57600060203660031901126104ea57600435610b4c8161018f565b610b546111f7565b6001600160a01b037f0000000000000000000000000000000000000000000000000000000000000000811691839190833b15610bca5760249083604051958694859363ca5eb5e160e01b85521660048401525af180156106fe57610bb6575080f35b6001600160401b03811161034c5760405280f35b8280fd5b3461015d57608036600319011261015d57600435610beb816104ed565b6001600160401b039060243582811161015d57610c0c903690600401610162565b909260443590811161015d57610c26903690600401610162565b9060643592831515840361015d5761046195610c4195610edf565b604051918291829190916020806040830194805184520151910152565b3461015d57602036600319011261015d57600435610c7b8161018f565b610c836111f7565b6001600160a01b039081168015610cd157600080546001600160a01b03198116831782559092167f8be0079c531659141344cd1fd0a4f28419497f9722a3daafe3b4186f6b6457e08380a380f35b604051631e4fbdf760e01b815260006004820152602490fd5b3461015d57606036600319011261015d576020610d063661014c565b63ffffffff8135610d16816104ed565b166000526001825260406000205482604051920135148152f35b35610401816104ed565b90918060409360208452816020850152848401376000828201840152601f01601f1916010190565b604051906107748261036c565b9291926001600160401b03821161034c5760405191610d98601f8201601f191660200184610387565b82948184528183011161015d578281602093846000960137010152565b60209083610774939594956040519683610dd889955180928880890191016103a8565b8401918583013701600083820152038085520183610387565b63ffffffff166000526002602052610e1a61082c60406000206001600052602052604060002090565b805115610e80578215610e7a576002831015610e4d5750610287604051928392639a6d49cd60e01b845260048401610d3a565b610e60610e5b368585610d6f565b61156e565b8260021161015d5761040192600119019160020190610db5565b91505090565b50610401913691610d6f565b610e1a9163ffffffff61082c9216600052600260205260406000209061ffff16600052602052604060002090565b6040513d6000823e3d90fd5b60405190610ed382610331565b60006020838281520152565b9194610f1e95610f24610f8096610f659496610ef9610ec6565b506040998a98610f108a5196879260208401610d3a565b03601f198101865285610387565b86610df1565b90610f2d610ec6565b50610f3785610fe7565b610f4e610f42610d62565b63ffffffff9097168752565b602086015285850152606084015215156080830152565b815180938192631bb8518b60e31b83523090600484016112bc565b03817f00000000000000000000000000000000000000000000000000000000000000006001600160a01b03165afa9182156106fe57600092610fc157505090565b6104019250803d10610fe0575b610fd88183610387565b8101906115a6565b503d610fce565b63ffffffff16806000526001602052604060002054908115611007575090565b6024906040519063f6ff4fb760e01b82526004820152fd5b81811061102a575050565b6000815560010161101f565b90601f8211611043575050565b6107749160036000527fc2575a0e9e593c00f959f8c92f12db2869c3395a3b0502d05e2516446f71f85b906020601f840160051c8301931061108d575b601f0160051c019061101f565b9091508190611080565b9190601f81116110a657505050565b610774926000526020600020906020601f840160051c8301931061108d57601f0160051c019061101f565b602092918101818103841361015d5781356001600160401b039283821161015d57019080601f8301121561015d5781602061110e93359101610d6f565b92835191821161034c5761112c826111276003546102e1565b611036565b602090601f831160011461116f5750819061115f9394600092611164575b50508160011b916000199060031b1c19161790565b600355565b01519050388061114a565b90601f198316946111a260036000527fc2575a0e9e593c00f959f8c92f12db2869c3395a3b0502d05e2516446f71f85b90565b926000905b8782106111df5750508360019596106111c6575b505050811b01600355565b015160001960f88460031b161c191690553880806111bb565b806001859682949686015181550195019301906111a7565b6000546001600160a01b0316330361120b57565b60405163118cdaa760e01b8152336004820152602490fd5b6040519061123082610351565b8160008152600060208201526040611246610ec6565b910152565b919082604091031261015d5760405161126381610331565b6020808294805184520151910152565b60808183031261015d576040519161128a83610351565b8151835260208201516001600160401b038116810361015d5760208401526112b49160400161124b565b604082015290565b906020909392936040835263ffffffff815116604084015281810151606084015260806113106112fa604084015160a08488015260e08701906103cb565b6060840151868203603f190160a08801526103cb565b910151151560c08401526001600160a01b03909416910152565b805182101561133e5760209160051b010190565b634e487b7160e01b600052603260045260246000fd5b91909182516001600160401b03811161034c5761137b8161137584546102e1565b84611097565b602080601f83116001146113b2575081906113ae9394956000926111645750508160011b916000199060031b1c19161790565b9055565b90601f198316956113c885600052602060002090565b926000905b888210611405575050836001959697106113ec575b505050811b019055565b015160001960f88460031b161c191690553880806113e2565b806001859682949686015181550195019301906113cd565b6020808201908083528351809252604092604081018260408560051b8401019601946000925b858410611454575050505050505090565b909192939495968580611497600193603f198682030188528b518760609163ffffffff815116845261ffff868201511686850152015191818982015201906103cb565b990194019401929594939190611443565b9060009160005b81518110156115345760019061152e60406114d6816114ce858861132a565b51015161156e565b611529816114e4858861132a565b5101519163ffffffff6114f7868961132a565b515116895261ffff602091600283528a2091611513878a61132a565b5101511661ffff16600052602052604060002090565b611354565b016114af565b507fbe4864a8e820971c0247f5992e2da559595f7bf076a21cb5928d443d2a13b674919250611569906040519182918261141d565b0390a1565b600361ffff600283015116036115815750565b604051639a6d49cd60e01b8152602060048201529081906102879060248301906103cb565b9060408282031261015d576104019161124b565b8034036115c45790565b6040516304fb820960e51b8152346004820152602490fd5b60405163393f876560e21b81526001600160a01b037f00000000000000000000000000000000000000000000000000000000000000008116926020929091908381600481885afa9081156106fe576000916116bf575b50169283156116ad5760009160405190848201926323b872dd60e01b8452336024840152604483015260648201526064815261166d8161036c565b519082855af115610eba576000513d6116a45750803b155b61168c5750565b60249060405190635274afe760e01b82526004820152fd5b60011415611685565b6040516329b99a9560e11b8152600490fd5b90508381813d83116116ee575b6116d68183610387565b8101031261015d57516116e88161018f565b38611632565b503d6116cc56fea2646970667358221220e84e8b697e7f47e06666831abdd93b4d171ece2f468882b90cc6ed2b7c7157f564736f6c63430008160033",
  "devdoc": {
    "errors": {
      "OwnableInvalidOwner(address)": [
        {
          "details": "The owner is not a valid owner account. (eg. `address(0)`)"
        }
      ],
      "OwnableUnauthorizedAccount(address)": [
        {
          "details": "The caller account is not authorized to perform an operation."
        }
      ],
      "SafeERC20FailedOperation(address)": [
        {
          "details": "An operation with an ERC-20 token failed."
        }
      ]
    },
    "kind": "dev",
    "methods": {
      "allowInitializePath((uint32,bytes32,uint64))": {
        "details": "This indicates to the endpoint that the OApp has enabled msgs for this particular path to be received.This defaults to assuming if a peer has been set, its initialized. Can be overridden by the OApp if there is other logic to determine this.",
        "params": {
          "origin": "The origin information containing the source endpoint and sender address."
        },
        "returns": {
          "_0": "Whether the path has been initialized."
        }
      },
      "combineOptions(uint32,uint16,bytes)": {
        "details": "If there is an enforced lzReceive option: - {gasLimit: 200k, msg.value: 1 ether} AND a caller supplies a lzReceive option: {gasLimit: 100k, msg.value: 0.5 ether} - The resulting options will be {gasLimit: 300k, msg.value: 1.5 ether} when the message is executed on the remote lzReceive() function.This presence of duplicated options is handled off-chain in the verifier/executor.",
        "params": {
          "_eid": "The endpoint ID.",
          "_extraOptions": "Additional options passed by the caller.",
          "_msgType": "The OAPP message type."
        },
        "returns": {
          "_0": "options The combination of caller specified options AND enforced options."
        }
      },
      "constructor": {
        "params": {
          "_endpoint": "The local chain's LayerZero Endpoint V2 address",
          "_owner": "The address permitted to configure this OApp"
        }
      },
      "isComposeMsgSender((uint32,bytes32,uint64),bytes,address)": {
        "details": "_origin The origin information containing the source endpoint and sender address.  - srcEid: The source chain endpoint ID.  - sender: The sender address on the src chain.  - nonce: The nonce of the message._message The lzReceive payload.Applications can optionally choose to implement separate composeMsg senders that are NOT the bridging layer.The default sender IS the OAppReceiver implementer.",
        "params": {
          "_sender": "The sender address."
        },
        "returns": {
          "_0": "isSender Is a valid sender."
        }
      },
      "lzReceive((uint32,bytes32,uint64),bytes32,bytes,address,bytes)": {
        "details": "Entry point for receiving messages or packets from the endpoint.Entry point for receiving msg/packet from the LayerZero endpoint.",
        "params": {
          "_executor": "The address of the executor for the received message.",
          "_extraData": "Additional arbitrary data provided by the corresponding executor.",
          "_guid": "The unique identifier for the received LayerZero message.",
          "_message": "The payload of the received message.",
          "_origin": "The origin information containing the source endpoint and sender address.  - srcEid: The source chain endpoint ID.  - sender: The sender address on the src chain.  - nonce: The nonce of the message."
        }
      },
      "nextNonce(uint32,bytes32)": {
        "details": "_srcEid The source endpoint ID._sender The sender address.The path nonce starts from 1. If 0 is returned it means that there is NO nonce ordered enforcement.Is required by the off-chain executor to determine the OApp expects msg execution is ordered.This is also enforced by the OApp.By default this is NOT enabled. ie. nextNonce is hardcoded to return 0.",
        "returns": {
          "nonce": "The next nonce."
        }
      },
      "oAppVersion()": {
        "returns": {
          "receiverVersion": "The version of the OAppReceiver.sol implementation.",
          "senderVersion": "The version of the OAppSender.sol implementation."
        }
      },
      "owner()": {
        "details": "Returns the address of the current owner."
      },
      "quoteSendString(uint32,string,bytes,bool)": {
        "params": {
          "_dstEid": "Destination chain's endpoint ID.",
          "_options": "Message execution options (e.g., for sending gas to destination).",
          "_payInLzToken": "Whether to return fee in ZRO token.",
          "_string": "The string to send."
        },
        "returns": {
          "fee": "A `MessagingFee` struct containing the calculated gas fee in either the native token or ZRO token."
        }
      },
      "renounceOwnership()": {
        "details": "Leaves the contract without owner. It will not be possible to call `onlyOwner` functions. Can only be called by the current owner. NOTE: Renouncing ownership will leave the contract without an owner, thereby disabling any functionality that is only available to the owner."
      },
      "sendString(uint32,string,bytes)": {
        "params": {
          "_dstEid": "Destination Endpoint ID (uint32)",
          "_options": "Execution options for gas on the destination (bytes)",
          "_string": "The string to send"
        }
      },
      "setDelegate(address)": {
        "details": "Only the owner/admin of the OApp can call this function.Provides the ability for a delegate to set configs, on behalf of the OApp, directly on the Endpoint contract.",
        "params": {
          "_delegate": "The address of the delegate to be set."
        }
      },
      "setEnforcedOptions((uint32,uint16,bytes)[])": {
        "details": "Sets the enforced options for specific endpoint and message type combinations.Only the owner/admin of the OApp can call this function.Provides a way for the OApp to enforce things like paying for PreCrime, AND/OR minimum dst lzReceive gas amounts etc.These enforced options can vary as the potential options/execution on the remote may differ as per the msgType. eg. Amount of lzReceive() gas necessary to deliver a lzCompose() message adds overhead you dont want to pay if you are only making a standard LayerZero message ie. lzReceive() WITHOUT sendCompose().",
        "params": {
          "_enforcedOptions": "An array of EnforcedOptionParam structures specifying enforced options."
        }
      },
      "setPeer(uint32,bytes32)": {
        "details": "Only the owner/admin of the OApp can call this function.Indicates that the peer is trusted to send LayerZero messages to this OApp.Set this to bytes32(0) to remove the peer address.Peer is a bytes32 to accommodate non-evm chains.",
        "params": {
          "_eid": "The endpoint ID.",
          "_peer": "The address of the peer to be associated with the corresponding endpoint."
        }
      },
      "transferOwnership(address)": {
        "details": "Transfers ownership of the contract to a new account (`newOwner`). Can only be called by the current owner."
      }
    },
    "version": 1
  },
  "userdoc": {
    "kind": "user",
    "methods": {
      "SEND()": {
        "notice": "Msg type for sending a string, for use in OAppOptionsType3 as an enforced option"
      },
      "allowInitializePath((uint32,bytes32,uint64))": {
        "notice": "Checks if the path initialization is allowed based on the provided origin."
      },
      "combineOptions(uint32,uint16,bytes)": {
        "notice": "Combines options for a given endpoint and message type."
      },
      "constructor": {
        "notice": "Initialize with Endpoint V2 and owner address"
      },
      "endpoint()": {
        "notice": "Retrieves the LayerZero endpoint associated with the OApp."
      },
      "isComposeMsgSender((uint32,bytes32,uint64),bytes,address)": {
        "notice": "Indicates whether an address is an approved composeMsg sender to the Endpoint."
      },
      "lastMessage()": {
        "notice": "Last string received from any remote chain"
      },
      "nextNonce(uint32,bytes32)": {
        "notice": "Retrieves the next nonce for a given source endpoint and sender address."
      },
      "oAppVersion()": {
        "notice": "Retrieves the OApp version information."
      },
      "peers(uint32)": {
        "notice": "Retrieves the peer (OApp) associated with a corresponding endpoint."
      },
      "quoteSendString(uint32,string,bytes,bool)": {
        "notice": "Quotes the gas needed to pay for the full omnichain transaction in native gas or ZRO token."
      },
      "sendString(uint32,string,bytes)": {
        "notice": "Send a string to a remote OApp on another chain"
      },
      "setDelegate(address)": {
        "notice": "Sets the delegate address for the OApp."
      },
      "setPeer(uint32,bytes32)": {
        "notice": "Sets the peer address (OApp instance) for a corresponding endpoint."
      }
    },
    "version": 1
  },
  "storageLayout": {
    "storage": [
      {
        "astId": 1533,
        "contract": "contracts/MyOApp.sol:MyOApp",
        "label": "_owner",
        "offset": 0,
        "slot": "0",
        "type": "t_address"
      },
      {
        "astId": 785,
        "contract": "contracts/MyOApp.sol:MyOApp",
        "label": "peers",
        "offset": 0,
        "slot": "1",
        "type": "t_mapping(t_uint32,t_bytes32)"
      },
      {
        "astId": 1381,
        "contract": "contracts/MyOApp.sol:MyOApp",
        "label": "enforcedOptions",
        "offset": 0,
        "slot": "2",
        "type": "t_mapping(t_uint32,t_mapping(t_uint16,t_bytes_storage))"
      },
      {
        "astId": 10759,
        "contract": "contracts/MyOApp.sol:MyOApp",
        "label": "lastMessage",
        "offset": 0,
        "slot": "3",
        "type": "t_string_storage"
      }
    ],
    "types": {
      "t_address": {
        "encoding": "inplace",
        "label": "address",
        "numberOfBytes": "20"
      },
      "t_bytes32": {
        "encoding": "inplace",
        "label": "bytes32",
        "numberOfBytes": "32"
      },
      "t_bytes_storage": {
        "encoding": "bytes",
        "label": "bytes",
        "numberOfBytes": "32"
      },
      "t_mapping(t_uint16,t_bytes_storage)": {
        "encoding": "mapping",
        "key": "t_uint16",
        "label": "mapping(uint16 => bytes)",
        "numberOfBytes": "32",
        "value": "t_bytes_storage"
      },
      "t_mapping(t_uint32,t_bytes32)": {
        "encoding": "mapping",
        "key": "t_uint32",
        "label": "mapping(uint32 => bytes32)",
        "numberOfBytes": "32",
        "value": "t_bytes32"
      },
      "t_mapping(t_uint32,t_mapping(t_uint16,t_bytes_storage))": {
        "encoding": "mapping",
        "key": "t_uint32",
        "label": "mapping(uint32 => mapping(uint16 => bytes))",
        "numberOfBytes": "32",
        "value": "t_mapping(t_uint16,t_bytes_storage)"
      },
      "t_string_storage": {
        "encoding": "bytes",
        "label": "string",
        "numberOfBytes": "32"
      },
      "t_uint16": {
        "encoding": "inplace",
        "label": "uint16",
        "numberOfBytes": "2"
      },
      "t_uint32": {
        "encoding": "inplace",
        "label": "uint32",
        "numberOfBytes": "4"
      }
    }
  }
}